:020000040800F2
:10000000000400201D8100081F8100081F810008D6
:100010001F8100081F8100081F8100081F81000840
:100020001F8100081F8100081F8100086552010818
:100030001F8100081F8100081F8100081F81000820
:100040001F8100081F810008157601087D760108D0
:100050001F8100081F810008655F01088D5F01088E
:10006000B55F0108DD5F01080560010861650108F1
:1000700089650108B5650108E16501080D6601089B
:1000800035660108616601081F8100081F810008AC
:100090001F8100081F8100081F8100082D600108D2
:1000A0001F8100081F8100081F8100081F810008B0
:1000B000016101081F8100081F8100081F810008DD
:1000C0001F8100081F8100081F8100081F81000890
:1000D0001F8100081F8100081F8100081F81000880
:1000E00091600108B57601081F8100081F81000892
:1000F0001F8100081F8100081F8100088D6601080C
:100100001F8100081F8100081F8100081F8100084F
:100110001F8100081F8100081F8100081F8100083F
:10012000B9660108E16601080D6701083967010831
:10013000656701081F8100081F8100081F810008F2
:100140001F8100081F8100081F8100083972010803
:100150008D670108B9670108E56701081F8100087C
:100160001F8100081F8100081F8100081F810008EF
:100170001F8100081F8100081F8100081F810008DF
:100180001F8100081F8100081F8100081F810008CF
:100190001F8100081F8100081F8100081F810008BF
:1001A0001F8100081F8100081F8100081F810008AF
:1001B0001F8100081F8100081F8100081F8100089F
:1001C0001F8100081F8100081F8100081F8100088F
:1001D0001F8100081F8100081F8100081F8100087F
:1080000072B6374880F30888364880F309883648C6
:108010003649086040F20000CCF200004EF63471A0
:10802000CEF200010860BFF34F8FBFF36F8F40F2B5
:108030000000C0F2F0004EF68851CEF20001086058
:10804000BFF34F8FBFF36F8F4FF00000E1EE100AC8
:108050004EF63C71CEF200010860062080F31488D1
:10806000BFF36F8F0CF07CFD0CF0E6F84FF055304D
:108070001F491B4A91423CBF41F8040BFAE71D49D6
:10808000184A91423CBF41F8040BFAE71A491B4ACF
:108090001B4B9A423EBF51F8040B42F8040BF8E721
:1080A00000201849184A91423CBF41F8040BFAE7F6
:1080B0000CF05AFD0CF055FD144C154DAC4203DA92
:1080C00054F8041B8847F9E707F0A0FA114C124D49
:1080D000AC4203DA54F8041B8847F9E70CF042BDC0
:1080E00000040020000C00200000000808ED00E063
:1080F00000000020000400208CA10108000C0020DA
:108100004816002048160020505700200080000824
:1081100000800008008000080080000870E700F080
:1081200000F8FEE72DE9F04F2DED108AC1F80CD0D4
:10813000C3689D46BDEC108ABDE8F08F002383F331
:1081400011882846A04700200CF0BAFFFEE70CF08B
:1081500013FF00DFFEE7000053B94AB9002908BF4A
:1081600000281CBF4FF0FF314FF0FF3000F00CB87B
:10817000ADF1080C6DE904CE0FF056FEDDF804E019
:10818000DDE9022304B07047704700BF034613F8CF
:10819000012B002AFBD1181A01387047000000009B
:1081A00001F0FF01102A2BDB10F0070F08D010F8A8
:1081B000013B013A8B422DD010F0070F42B3F6D1AC
:1081C000F0B441EA012141EA014122F007047FF0C5
:1081D00000070023F0E80256083C85EA010586EA1C
:1081E000010685FA47F5A3FA87F586FA47F6A5FA58
:1081F00087F68EB9EED1F0BC01F0FF0102F0070264
:1082000032B110F8013B013A83EA010313B1F8D10E
:108210000020704701387047002D06BF35460338EF
:10822000073815F0010F07D1013015F4807F02BF28
:10823000013015F4C03F0130F0BC0138704700BF79
:10824000034B1B78032B06BF024B187800207047A6
:10825000491600204A16002008B5C0220448002113
:1082600010F0F8F8034A00231370034A137008BD96
:1082700004310020C4310020C531002030B50F4D3D
:1082800085B001AB83E8070029780D484B1C0478C2
:1082900003F00F029442134604BF013202F00F02B2
:1082A000084C08BF02700C2202FB014401AA07CA55
:1082B00084E8070001202B7005B030BDC4310020D8
:1082C000C53100200431002010B5104C022240F2CC
:1082D0006A21204607F042FA0D4802224FF41B7132
:1082E00007F03CFA23884BB94FF416732380084BF0
:1082F0001A883AB94FF4E1521A8010BD042BF6D80F
:108300000523F3E71D2AF8D81E22F5E71A0C0020F2
:10831000180C002008B50748022240F26A2107F035
:10832000D5F9BDE80840044802224FF41B7107F05C
:10833000CDB900BF1A0C0020180C002008B5094B5D
:1083400001221A70FFF788FF00F086FB01F0FEF9AA
:1083500002F0AAF801F000FF02F0A6FABDE808401A
:10836000FFF7B2BF4916002038B504460D4602F0AB
:1083700003F950B9054B9B6813B12946204698472D
:10838000034B04221A70034B1C7038BD200C0020D4
:10839000491600204B16002010B502F0EDF8A8B9E0
:1083A0000BF0A4FB90B10A4C2378052B07D101F008
:1083B00013FA20B9074B2078197801F001FC064B1D
:1083C00000215B68084698470523237010BD00BF55
:1083D000491600204B160020200C002030B58BB031
:1083E000054602F0C9F830B9144B1B78042B04D1B0
:1083F000134B1B781BB90BB030BD032B17D1114B9E
:108400001B69002BF7D000F073FB01230446082200
:1084100029460DF106008DF8043010F06AF801A825
:1084200000F030FB002CE6D000F092FBE3E7002BDD
:10843000E1D00BB0BDE83040FFF7AEBF49160020D9
:1084400048160020200C002030B58BB0054602F005
:1084500093F830B9144B1B78042B04D1134B1B78C1
:108460001BB90BB030BD032B17D1114B5B69002B2F
:10847000F7D000F03DFB02230446202229460DF1EF
:1084800006008DF8043010F034F801A800F0FAFA74
:10849000002CE6D000F05CFBE3E7002BE1D00BB052
:1084A000BDE83040FFF778BF49160020481600208D
:1084B000200C002010B5044602F05EF878B9084B95
:1084C0001B78032B06D1074B1B6A43B12046BDE83E
:1084D000104018471BB1BDE81040FFF75DBF10BD4D
:1084E00049160020200C002070B504460E4602F00C
:1084F00043F898B90A4D54B10A4B1A78A24202D1F6
:108500002A78032A0AD01C70074B00221A70074BE6
:1085100031465B682046984705232B7070BD00BF2D
:10852000491600204B1600204A160020200C00207F
:10853000024BDB6803B11847704700BF200C0020D6
:10854000014B1878704700BF4816002070477047ED
:108550007047704770477047054B1B78032B03D15A
:10856000044BDB691BB118470BB1FFF715BF704710
:1085700049160020200C002010B5134B1B78032B4C
:108580008AB0044619D100F0B3FA60B100F0C4FA21
:1085900048B10E4B9B690BB1204698470AB0BDE825
:1085A000104000F0B1BA032301A88DF80430ADF8F3
:1085B000064000F067FA0AB010BD002BFBD00AB0ED
:1085C000BDE81040FFF7E8BE49160020200C00204F
:1085D00010B5044601F0D0FFA0B92378032B07D1D2
:1085E0006378A078BDE8104043EA0020FFF7B4BFED
:1085F000042B07D16378A078BDE8104043EA00203F
:10860000FFF7BABF10BD000010B5002088B001F020
:1086100005F900F021FA05F092FD41F288300CF0E6
:1086200054FD174B174C93F90030002B22DA20220F
:10863000002168460FF00EFF63690DF101009847B5
:108640004FF47A700CF041FDA369002098474FF475
:108650007A700CF03AFD00230093ADF804306846C0
:10866000236A984747F230500CF02FFDFFF760FF68
:1086700008B010BD0023CDE9003368462369DEE76A
:10868000A8540020200C00202DE9F0477E4E7F4D9D
:1086900037782B7800209F4240F0C88000B12F70BF
:1086A000BDE8F0872B707A4B002220461A7002F04A
:1086B000ADF9EDE72B70764B03202146187001F0E1
:1086C0007FFA744B1C7005F03AFD2046FFF740FF1F
:1086D00001F048FF10B1012001F0A0F86E4B9C6A38
:1086E00014B101F017FFA04701F022FDD0E72B7075
:1086F000684B1C70664B04202146187001F060FA2C
:108700002046FFF723FFC3E72B70624B1C70604BC2
:1087100005202146187001F053FA2046FFF717FF95
:10872000B6E70EFB02C25A4FDFF87C912B70002394
:1087300092F8088097F800A089F8003001F08CFCCE
:1087400010F0060F03D099F8000002F041FB022060
:10875000BAF1030F387020D101F0EAFC214606205F
:1087600001F02EFAB8F1000F08D001F075FC10F0FE
:10877000060F03D049F6404001F026F800F06CF9EE
:10878000464B0027414620461F7002F041F938460B
:1087900001F044F801F032FF7AE72146E0E7404A71
:1087A0002B70137823F0800313703E4B01221A7054
:1087B000FFF7CFFE6CE73A482B7006F01FFA394BF3
:1087C00000221A70FFF7C6FE62E7314CDFF8D8804E
:1087D0002B700023277888F8003001F03DFC10F062
:1087E000060F03D098F8000002F0F2FA033F0623C8
:1087F000012F23703FF64CAF01F09AFCFFF7ABFE60
:108800002078002101F0DCF9002001F007F83FE7B3
:108810002B70254B1C703BE72B70244B00221A70E9
:1088200036E720462B7000F087F931E74FF00C0E49
:10883000DFF87CC01A460EFB03F303EB0C001CF8B8
:1088400003100479531C013903F00F0301200A2996
:108850003FF621AF0FF2040858F821F0A586000872
:10886000EF86000809870008B586000823870008FE
:108870009F870008B7870008CB8700081988000881
:108880001188000823880008C4310020C531002069
:10889000491600204B160020200C00204C1600200A
:1088A000A8540020481600204A1600201C0C002066
:1088B0000431002008B5084BDB6A9847FFF7E4FE57
:1088C00000F046F901F0B2FA02F0B8F801F09EFEAD
:1088D000BDE8084001F082BD200C002008B501F081
:1088E000BBFB10F0060F0AD0054B1B78032B06D1FB
:1088F000044BDB6A9847BDE8084000F029B908BD81
:1089000049160020200C0020014B1878704700BF4A
:1089100049160020014B1878704700BF4B16002005
:1089200038B505460C4601F097FB10F0060F0DD048
:1089300001F0FEFB01F016FE40B1074B1B78032B44
:1089400004D1637913B1012000F068FF2146284665
:10895000BDE8384001F0D8BF4916002010B50649DF
:108960000446022201300FF0C4FD04490222E01C3B
:108970000FF0BFFD012010BD1A0C0020180C0020C4
:1089800038B5224C01460546022220460FF0B1FDC3
:108990000222A9181E480FF0ACFD2288042A02D931
:1089A00003883B2B03D8FFF78FFC002038BDFFF76F
:1089B000B1FC01F051FB10F0060F23D0154B1B78D2
:1089C000032B1FD120884FF47A74604300F0FCFE23
:1089D00000F0F8FECF2009F045FF0AF021F820460C
:1089E0000CF073FBD02009F03DFF0AF019F8204687
:1089F0000CF06BFBD02009F087FF0AF011F820463D
:108A00000CF063FB01F0CCFF0120CFE71A0C002033
:108A1000180C00204916002007B5034B019301A84C
:108A2000FFF7AEFF03B000BD5802201C10B543781D
:108A30000B2B044604D00C2B07D0FF23037002E05D
:108A40000230FFF78BFF012002E00230FFF798FFB2
:108A500080F00100A07010BD064A08B50023138005
:108A6000054A1380054A13700BF040F8044B186058
:108A700008BD00BFEA310020C63100204C1600209E
:108A80005416002038B50A4D0A4A2B8812885C1CFF
:108A9000E4B2A242014608D00748222202FB0300AA
:108AA0000FF027FD2C80012038BD0020FCE700BF1F
:108AB000EA310020C6310020EC31002038B5094DE4
:108AC000094B2C881B88A3420AD00849222202FBAA
:108AD00004110134E4B20FF00CFD2C80012038BDEC
:108AE0000020FCE7C6310020EA310020EC310020F4
:108AF000034B1888034B1B88C31A584258417047D0
:108B0000EA310020C631002008B50AF0EFFF014B22
:108B1000186008BD5416002008B5054B18680AF007
:108B200092FF044B1B78984294BF0020012008BD9F
:108B3000541600201D0C0020014B1870704700BF18
:108B40001D0C0020014B1870704700BF4C16002010
:108B500038B5FFF7D9FE032835D1FFF7C9FF002844
:108B60003AD1FFF7D9FF002835D0264C2378002BC7
:108B700037D1254D2846FFF7A1FF60B32B7853B3BB
:108B80000AF0B4FF022826D91E2323700AF0AEFF94
:108B90001D4C1E4B18602378022B2BD11C4B5B699C
:108BA0004BB1E01C98472378032B04D1184B9B69E9
:108BB0000BB1608898470AF099FF164B1860BDE822
:108BC000384001F0B5BAFFF79FFE042803D1FFF744
:108BD000B7FC0028C1D138BD0A4B1B78002BFAD056
:108BE000BFE70A4B18680AF02EFF0228F3D9237852
:108BF000013BCAE7012BD6D1054B1B69002BDAD00C
:108C0000A01CCFE74C160020C831002050160020D1
:108C1000200C00205416002070B5044660B91C4892
:108C2000012210210DF0E4FE194B10251E465D8334
:108C300064200CF04AFA3583164840F28222202143
:108C40000DF0D6FE134840F2822240210DF0D0FEF6
:108C5000104840F2822280210DF0CAFE0E4B1B7894
:108C600033B91CB1BDE870400CF09ABD0CF098FD12
:108C70000848012210210DF0BBFE064A07481023C8
:108C80001383BDE87040202202210DF0B1BE00BF69
:108C90000008024000000240185700200004024073
:108CA00010B50E4C20680AF0CEFE40F6B83398425C
:108CB00012D90AF01BFF2060094C4FF48013A36106
:108CC0004FF47A700CF001FA1023A36147F2305090
:108CD000BDE810400CF0F9B910BD00BFC41600206B
:108CE0000000024008B50AF001FF014B186008BD02
:108CF000BC160020F0B591B006460C461746002180
:108D00001D46402268460FF0A5FB2B4915B90B788C
:108D100001330B700B780BB901230B7032463119FC
:108D20000025914244D147F68462ADF80020AA2282
:108D30008DF80420A21C8DF806206FF00202121B91
:108D40008DF807203146224655370DF109008DF880
:108D500008308DF805700FF0CCFB10AA04F1090360
:108D600052FA83F3154903F8405C04F10A0352FAFE
:108D700083F32D0A03F8405C114D124B4022284624
:108D80001A700CF017FD28460CF033FD04F10B01AE
:108D90006A46C9B228460CF069FD6B681969DA6841
:108DA00001238B40138328460CF015FD11B0F0BD54
:108DB00012F8010B0544B4E7BA1600201891010817
:108DC00018570020520C002038B53F2204460021DD
:108DD0000D480FF03FFB0C4A1123154602F8013CE9
:108DE0002146082228460FF084FB00230122092196
:108DF000681EFFF77FFF054B1B681BB9BDE83840B5
:108E0000FFF770BF38BD00BFC9160020BC16002098
:108E100038B53F22044600210D480FF01BFB0C4AD9
:108E20001223154602F8013C2146142228460FF071
:108E300060FB002301221521681EFFF75BFF054B35
:108E40001B681BB9BDE83840FFF74CBF38BD00BFF9
:108E5000C9160020BC16002010B53D220446002192
:108E60000B480FF0F7FA0A4A1323D01E02F8033C0E
:108E700044700023240A012207218470FFF73AFF7F
:108E8000044B1B681BB9BDE81040FFF72BBF10BD9A
:108E9000CB160020BC16002000F17F03DBB2022BB2
:108EA00010B51AD83E220021C4B20C480FF0D2FAF5
:108EB0000A4A1423901E02F8023C813C012202FA65
:108EC00004F4002302214470FFF714FF044B1B68D5
:108ED0001BB9BDE81040FFF705BF10BDCA16002042
:108EE000BC16002010B53F22044600210F480FF0A9
:108EF000B1FA0E48162300F8013C637800F80139F6
:108F0000A378837043F3C013C370E378037143F312
:108F1000C0134371237983716379C3710023BDE862
:108F200010401A460821FFF7E5BE00BFC916002011
:108F300070B53F220C46054600210A480FF08AFA18
:108F4000084A0848932302F8013C294622460FF0BC
:108F5000D0FA611C0023BDE8704003481A46C9B22C
:108F6000FFF7C8BEC9160020C81600207FB5064608
:108F70000D463E2200211B480FF06CFA1A4B93E875
:108F8000070001AC84E80700002D18BF2C46174DE0
:108F900021232B706388AB7063886E701B0AEB70A3
:108FA00023792B71A66863796B71A379AB71BEB11C
:108FB0003046FFF7EBF831460246E81D0FF099FA0C
:108FC000A068FFF7E3F8C41DE4B2FFF769FE0748A5
:108FD00000230122214604B0BDE87040FFF78ABE9D
:108FE0000724F2E7CA160020FC900108C8160020EA
:108FF00070B53C220D46064600210F480FF02AFAB4
:109000000D4A2223141F02F8025C2D0A02F8043CC8
:1090100002F8036C02F8015CFFF742FE0023012214
:1090200004212046FFF766FE044B1B681BB9BDE810
:109030007040FFF757BE70BDCC160020BC16002054
:109040003F2210B5104800210FF004FA0E4A0F48D5
:10905000232302F8013C0378022B02D00C490CF0C8
:10906000A9FB0A480CF0C5FB40F6B8300CF02DF80F
:1090700041F658300CF029F8BDE8104005480023AF
:1090800001220221FFF736BEC91600201857002022
:1090900018910108C816002010B53E220446002190
:1090A00008480FF0D7F9074A322302F8023C02F8C9
:1090B000014C0023901EBDE810401A460221FFF724
:1090C00019BE00BFCA16002030B591B04022054637
:1090D0000C46684600210FF0BDF947F684730D4930
:1090E000ADF800300C4880238DF803300CF062FBA3
:1090F00009480CF07EFB211D2B466A46C9B2064882
:109100000CF0A3FB04480CF081FB03480CF063FB5C
:1091100011B030BD189101081857002010B53F223A
:10912000002107480FF096F9054AA42302F8013CF4
:109130000023501EBDE810401A460121FFF7DABD9A
:10914000C916002070B53D2205460C46094800218D
:109150000FF080F9074A252302F8033C02F8025C6D
:10916000002302F8014CD01EBDE870401A460321CE
:10917000FFF7C0BDCB16002010B53E2204460021EB
:1091800008480FF067F9074A332302F8023C02F857
:10919000014C0023901EBDE810401A460221FFF743
:1091A000A9BD00BFCA16002010B53F220446002109
:1091B00009480FF04FF9084A0748412302F8013CDB
:1091C000214616220FF095F90023BDE81040034810
:1091D0001A461721FFF78EBDC9160020C8160020B9
:1091E00070B50546FEF7D2FF3F22044600210A482B
:1091F0000FF030F9084A0848452302F8013C294697
:10920000E2B20FF076F9611C0023BDE8704003481C
:109210001A46C9B2FFF76EBDC9160020C816002055
:1092200038B5002105463E220B480FF013F90A4AD3
:109230007123941E02F8023C02F8015CFFF730FD36
:1092400000231A4602212046FFF754FD0AF04EFC87
:10925000024B186038BD00BFCA160020C01600209F
:1092600010B53E220446002108480FF0F3F8074AE3
:10927000722302F8023C02F8014C0023901EBDE864
:1092800010401A460221FFF735BD00BFCA16002064
:1092900010B53E220446002108480FF0DBF8074ACB
:1092A000732302F8023C02F8014C0023901EBDE833
:1092B00010401A460321FFF71DBD00BFCA1600204B
:1092C0002DE9F041194C174603222270AA22627040
:1092D000192F4FF057023D46A27028BF1925FA43B7
:1092E0002271A0712A46E01D8846E77063710FF075
:1092F00000F92021204608F03DFEBD4201D3BDE823
:10930000F0817E1BF6B21F22002109480FF0A2F85F
:109310001F2E28BF1F26032308EB050104482370D6
:10932000324635440FF0E5F8EDB2E2E79A16002038
:109330009B1600202DE9F043AB4B1B6900259A07D3
:1093400095B02E4600F109814022294604A80FF06D
:1093500081F8A64B04A81978FFF7B6FE9DF81430E3
:10936000AA2B40F0A1809DF81570542F08D19DF8CC
:109370001830AB2B04D19DF81930552B00F0948098
:1093800001AC9B4A0023019313606360A3603B0719
:109390000AD501238DF804309DF816308DF8083079
:1093A00094E80700FEF76AFFF80733D5FFF7B6FE2B
:1093B0009DF81630203B062B24D8DFE813F0070079
:1093C0000B000D000F00EC00EE00F00004238DF800
:1093D000043017E00223FAE70323F8E7DFF82882D6
:1093E000D8F8000005238DF8043058B10AF02BFBA3
:1093F00040F6B733984205D80023C8F8003001235F
:109400008DF80C309DF817308DF8083094E807007F
:10941000FEF734FFB9070ED5002301936360A36004
:109420000A238DF804309DF818308DF8083094E840
:109430000700FEF723FFFA062BD59DF91C209DF8A7
:109440001C30002AADBFC3EB431203F07F0340F290
:10945000E24203EB8203B8BF13FB02F3B3F5FA5FFA
:109460004FF47A72B3FBF2F2A8BF032392B2A8BF03
:10947000B2FBF3F25F4B1A80002301936360A36099
:109480000B238DF804308DF8082094E80700FEF7D0
:10949000F5FE7B0708D59DF819309DF81A100120BC
:1094A00043EA012101F00EF853480778002F78D0E5
:1094B0000DF11A033122002104AC93F800C0BCF175
:1094C000AA0F9E4603F1010311D193F800C0BCF12D
:1094D000570F0CD193F801C093F802908CF0FF085D
:1094E000C14501BFDE780EF1050439466546013AF3
:1094F00012F0FF02E1D181B3404B02701D70404B6E
:109500001E703E4B1A783B2A27D801230021037096
:109510000B46901E884246DCA118D8B211F8025CB6
:1095200085421AD111F8011CB1EB132F15D1214638
:1095300001AE11F8010B324B0025033AA328019527
:109540001B787560D2B2B56000F0848030D8A12855
:1095500037D0A22874D092287FD0254C2368BBB185
:1095600020680AF070FAB0F5FA6F11D9254D10266F
:109570004FF47A706E830BF0A8FD44F620602E83C2
:109580000BF0A3FD00210846FFF732FD0023236006
:1095900015B0BDE8F083062319E7072317E7082372
:1095A00015E704ACADE7655C2B449BB20131B1E734
:1095B000B0283AD0B428D0D163788DF808300A2387
:1095C00037E0A378142B21D8102BC6D9E0780228D5
:1095D0001FD0032825D00028BFD1FFF7B3FA054BD1
:1095E0001878FFF7A9FAB8E700040240520C0020EF
:1095F000BC160020500C00201F0C00201E0C002068
:109600009816002000080240C0160020162BA4D196
:10961000DCE70020FFF796FA134B18780530C0B24C
:10962000DFE7114B18780A30F9E763788DF80830D6
:1096300001238DF8043096E80700FEF71FFE8CE743
:10964000E378002B89D1A378722B86D1012001F019
:10965000D3FD82E7FFF734FE7FE704480EF049FFB1
:109660000C230290E5E700BF500C002058160020A4
:109670002DE9F0410378AA2B044642D14378553BAB
:10968000DBB2012B3DD8C278837882F0FF0293428F
:1096900037D11B2B35D8461D051D6FF00300002266
:1096A0009F1E001B41198F4226DC3344D1B213F8B0
:1096B000020C884225D113F8013CB3EB122F20D1C4
:1096C000114B22791978914218BF1A70627902F011
:1096D000F00214BF00250125602A12D1FFF7E0FA3D
:1096E0006278A2F156014A422B464A413046F9B20D
:1096F000BDE8F041FFF7FEBA15F8011F0A4492B227
:10970000D0E7BDE8F08100BF991600200C4B1B7814
:1097100010B59BB10B490022012451F8043B0132E2
:1097200023F00F00D2B203F00F0304FA03F3032A6D
:109730000383F2D1044B4FF480421A8310BD00BF63
:10974000640C0020580C00200004024070B5194839
:10975000194D132200210EF07DFE002401262868F9
:1097600000F00F01012206FA01F120F00F000DF0C8
:109770003FF955F8043B013423F00F02E4B203F043
:109780000F0306FA03F3032C1383E8D10B480122DD
:109790004FF480410DF02CF9084A09484FF48043FA
:1097A0001383202101220DF023F9054A202353833E
:1097B00070BD00BFEE530020580C00200004024092
:1097C0000008024008F00EB908B508F005F9BDE838
:1097D000084008F007B90000044B1878044B9B7B45
:1097E0001843C0B2003818BF01207047101700207E
:1097F000EE53002008B5084B00229A7301F000FEDA
:1098000001F0F7FD18B1BDE8084001F0E7BDBDE883
:10981000084001F0ECBD00BFEE53002010B5174C1E
:1098200028B301F043F8236883420FD9144A127811
:1098300012B9206080B110BD03442360002BFAD020
:10984000C01A47F23053984202D8F4E7002BF7D100
:109850000B4B1B78002BEED10AF048F9094B18602E
:1098600001F024F8064B206001221A70E3E7044B54
:1098700020601870044B20225A83DCE70C1700206C
:1098800010170020141700200008024070B500F0E7
:10989000E3FB10F0060F30D000F06EFE044630B14E
:1098A00000221146104606F09BFE012070BD00F01C
:1098B00059FE20B122462146204606F091FE00F0D6
:1098C00033FF08B100F038FF244DAA7B002A42D0B4
:1098D0006B7B02F00F04CBB100221146104606F05C
:1098E0007FFEAB7B03F010021B062BD51AB30023BF
:1098F000FF221946182006F061FE00F0ADFB01289A
:1099000001D102F0F7FE06F062FFCEE7144E317887
:10991000A142E6D012F0100206D01A4619461820CD
:1099200006F04CFE3470DCE70E482044134610F875
:10993000010C1146F4E70B48FF232044114610F8B0
:10994000010CD8E712B100231A46D2E705481346A6
:1099500020441146F3E702F0CDFECEE7EE5300209F
:10996000530C0020309101082DE9F04102788E4B14
:109970008E4C052A18BF1A701B78A27B042B04D8C2
:10998000DFE803F0290308639200894B00221A8064
:10999000012521E0FAB1217CE37B43EA0123617CCC
:1099A00043EA0143A17C53EA0163F1D162F07F02F3
:1099B000637AA273A27A43EA0223E27A43EA024379
:1099C000227B53EA026306D01A0AE37322741A0C4C
:1099D0001B0E6274A3740025A27B002A00F0BF80D6
:1099E00002F00F01013912F01003C9B240F0A38058
:1099F00002294FF0030C40F2A28003EB81070026FE
:109A00004FF0010EF0B2814209D043B1386820F026
:109A10000F0800F00F000EFA00F0A8F81800013649
:109A2000F0B26045EED3110640F18B80002D40F07E
:109A3000B88043B13B68012223F00F0103F00F030C
:109A400002FA03F34B83BDE8F081002AC3D0237CE4
:109A5000E17BA078A67AA57C41EA0321637C41EAF8
:109A60000341637843EA0023607A40EA0620E67AFD
:109A700040EA0640267B51EA05610CBF62F07F0296
:109A800002F03F0240EA066018BFC31AA273484AB8
:109A900018BF9BB2138010B181423FF679AF002B03
:109AA0003FF476AF0B448FE7002A94D0100636D5EA
:109AB00002F03F026379A273A27943EA0223E279BA
:109AC00043EA0243227A43EA0263394A9BB2138093
:109AD000A17A627A42EA0122E17A42EA0142217BDA
:109AE00052EA01620CD0207CE17B41EA0021607CDB
:109AF00041EA0041A07C41EA00618A42FFF448AF9C
:109B0000002B3FF445AF217CE27B42EA0122617CDD
:109B100042EA0142A17C42EA0162134454E762F046
:109B20007F026378A273A27843EA0223E27843EAD1
:109B300002432279C7E71F4B4FF0010C5DE71E4B34
:109B40005BE743B13B68012123F00F0003F00F03F3
:109B500001FA03F30383002D3FF475AF00E065B114
:109B600002F03F02A273FFF791FE0023A37300F0FF
:109B7000DFFAA37B002B7FF466AF01F041FC07F016
:109B800075FD014600287FF45EAF024606F028FD11
:109B900002F0B0FD094BDB689847BDE8F04101F0E9
:109BA00026BC002BCED1DBE71C170020EE53002093
:109BB0001E170020540C0020580C00209499010816
:109BC0002DE9F04105460C4600F046FA012814D074
:109BD000594B182C1A7808BF1124A2420FD0022D1D
:109BE0000DD01C704FF00108544A1378AB4209D1D4
:109BF000B8F1000F06D1052D08D0BDE8F0814FF077
:109C00000008F1E7062B01D1022DF6D04C4F15705C
:109C10003B7009F06BFF4B4B4B4E186001F0DEFBC5
:109C2000AB1E042B16D8DFE803F003305670770024
:109C3000464C4749132220460EF05BFC2046FFF7B6
:109C400093FE00F099FC38B14FF47A70FFF7BCFD39
:109C5000FFF75CFD3570D0E73B78032BF4D0052B84
:109C6000F6D0A37A607A40EA0320E37A40EA034020
:109C7000237B50EA036005D049F64043984238BF41
:109C80001846E3E74FF0FF30E0E733782F4F032B20
:109C900002D1B8F1000F08D02E492C4813220EF043
:109CA00028FC2A48BC73FFF75FFEBA7A7B7A43EA46
:109CB0000223FA7A43EA02433A7B53EA026328D04A
:109CC000254A10884FF47A725043984238BF18469C
:109CD000FFF77AFDBEE71D4F2049132238460EF0EC
:109CE00008FC64F07F043846BC73FFF73DFEBB7A86
:109CF000787A40EA0320FB7A40EA03403B7B50EA53
:109D0000036006D049F64043DFE7104F14491322A1
:109D1000E4E74FF0FF30DBE70D490C4813220EF06B
:109D2000E8FB0A48FFF720FE01F0E8FB00288BD093
:109D300040F6B8308AE700BF0A1700200917002054
:109D4000081700201817002020170020EE530020CD
:109D500033910108599101081A0C00206C910108F7
:109D60004691010808B500F077F9012803D1044BAA
:109D70001B78052B03D0BDE8084002F0BBBC08BD32
:109D8000AC56002008B509F01DFCC04300F00100EE
:109D900008BD000070B5214C2378002B3CD003F0A7
:109DA0000F03052B08D91E4B20225A830023237052
:109DB000BDE8704000F0BCB91A4E306809F043FEAF
:109DC000B0F57A7F237823D913F0800F144D19D082
:109DD00003F07F030133237020236B8309F086FE99
:109DE0002378306003F00F03052B15D920236B83F4
:109DF0000D4B9B7B83B9FFF7C5FF68B1BDE8704091
:109E000001F0F5BA63F07F03237020232B83E5E78D
:109E100003F00F03052BC6D870BD00BF101700203C
:109E20000008024014170020EE53002010B500F087
:109E300017FD0A4B9B7B6BB1094C206809F003FEB0
:109E4000084B1B88984205D30748FFF78DFD09F0A2
:109E50004DFE2060BDE81040FFF79CBFEE53002090
:109E6000181700201E1700201C170020704708B587
:109E700000F0FAFDFEF71EFDFFF7F8FF00F0ECF82A
:109E8000012801D100F0EEF8012008BD08B5FFF768
:109E90005DFC07F0A9FD42F210700BF016F907F017
:109EA0009BFB4FF0FF3007F097FD07F09BFD09F09B
:109EB00089FBBDE8084000F08BBF000037B50446C1
:109EC000B8B11548154D09F05FFBFEF731FB09F0FD
:109ED0000DFE0446204609F0B6FD632806D9002190
:109EE0001E2003B0BDE83040FEF7FEBAEB6A98478B
:109EF000F0E7FFF77FFCFEF707FD032809D1084BC9
:109F00001B78022B05D1044BCDE900445B68684601
:109F1000984703B030BD00BF000C0020200C00208B
:109F20002117002037B50446B8B11548154D09F082
:109F30002BFBFEF7FDFA09F0D9FD0446204609F097
:109F400082FD632806D90021182003B0BDE8304007
:109F5000FEF7CABAEB6A9847F0E7FFF74BFCFEF74B
:109F6000D3FC032809D1084B1B78042B05D1044BE3
:109F7000CDE900445B686846984703B030BD00BF38
:109F8000000C0020200C00202117002007B550B144
:109F900009F000FB0A4B98420FD0184603B05DF859
:109FA00004EB09F0F1BA074B1B78042B05D1044BE5
:109FB000CDE900005B686846984703B000BD00BF6C
:109FC0009C100020AC56002038B5224D2B788342DF
:109FD00004463DD0012B1DD104F0B1F8022C2C70A9
:109FE0001DD0042C2AD0012C32D12046FFF7CEFF01
:109FF0000020FFF763FF4FF4FA700BF066F80020C3
:10A00000FFF790FFFEF794FA00F0B2F8BDE8384091
:10A01000FFF73CBFFEF778FC0328DFD1DCE7002028
:10A02000FFF780FF64200BF050F80120FFF746FF98
:10A030000020FFF7ABFF00F07BF8E7E70020FFF719
:10A040003DFF64200BF041F80120FFF76BFFEFE7C5
:10A0500038BD00BF21170020014B1878704700BFA2
:10A060002117002038B51F4C0AF016F82378052B6D
:10A0700037D11D4D2378052B05D004F02BFDBDE80D
:10A08000384008F0CDBC00F0EFFC2B78012B03D05A
:10A09000BDE8384003F09CBC09F0F3FC09F0BAFCC1
:10A0A0000028E7D00F480BF0A3FC47F230500BF02C
:10A0B0000CF8CF2008F0D6FB08F0B2FC4FF47A7011
:10A0C0000BF003F8D02008F0CDFB08F0A9FC4FF40A
:10A0D0007A700AF0FAFFD02008F016FC08F0A0FC15
:10A0E000C8E738BDAC5600202117002070B50F4DD1
:10A0F0001424012655F8040B431C11D000F00F0165
:10A10000012206FA01F120F00F000CF071FC55F865
:10A11000043C23F00F0203F00F0306FA03F353830A
:10A12000013C14F0FF04E5D170BD00BF680C0020B5
:10A1300008B5064B00221A7009F0D8FC044B1860D1
:10A14000044B40F6B8321A6008BD00BF3C1700202F
:10A1500040170020D00C002008B50448202201211F
:10A160000CF046FCBDE80840FFF7E2BF00040240E7
:10A17000024A00231370024A136070473C17002004
:10A1800040170020F8B50E4D06243026002755F85C
:10A19000043B01330CD086F3118855F8040C0322DC
:10A1A00000F00F0120F00F000CF088FC87F31188FD
:10A1B000013C14F0FF04EAD1FFF798FFF8BD00BF9F
:10A1C000B80C0020F8B50C4D06243026002755F8B1
:10A1D000043B01330BD086F3118855F8040C00F0D2
:10A1E0000F0120F00F000CF09BFC87F31188013C5D
:10A1F00014F0FF04EBD1F8BDB80C00207047704795
:10A20000014B10225A837047000002407047000043
:10A21000024B1869C04300F001007047000402407F
:10A2200030B585B0FFF718FF0128054625D1FFF7A7
:10A23000EFFF044608BB0246014606F0D1F9334B56
:10A24000DB68984707F0D0FB314B4FF400725A831C
:10A2500020225A832F4B93E8070001AB83E80700C5
:10A2600053F8042B013422F00F01E4B202F00F0284
:10A2700005FA02F2032C0A83F2D127480BF02EFBD9
:10A2800026480BF0A8FA2648402220210CF0B0FB0B
:10A290002348402280210CF0ABFB4022204811468D
:10A2A0000CF0A6FB302585F311881E4802220121FF
:10A2B0000CF004FC002484F3118885F311881948FC
:10A2C000032221460CF0FAFB84F3118885F31188F0
:10A2D0001348032209210CF0F1FB84F3118885F364
:10A2E00011880F4803220A210CF0E8FB84F311883F
:10A2F000FFF748FF0B4840224FF480510CF078FBE9
:10A3000000F0DAF8FFF77BFF05B030BD9499010843
:10A310000008024008910108AC56002018570020A0
:10A32000000002400004024038B50BF025F8204B35
:10A330001B680BB10120984707F086FF302500F01D
:10A34000B3F8FFF73FFF85F311881A4801210CF09D
:10A35000E7FB002484F3118885F31188164809214E
:10A360000CF0DEFB84F3118885F3118812480A2172
:10A370000CF0D6FB84F3118885F311880D48214633
:10A380000CF0CEFB84F31188FFF742FF20B109F0F7
:10A3900071FE0A4809F0DEFE01F04EFD05F0E8F816
:10A3A00006F04CF8BDE83840012007F02DBF00BF93
:10A3B000200C00200004024000000240AC560020A7
:10A3C000012810B5044603D8204600F0CBFB10BD91
:10A3D000FFF71EFF0028F7D00020F8E770B52C4CDF
:10A3E000267856B92B4D286809F02DFB2A4B1B689F
:10A3F000984282BF012323702E60FFF709FF50B1FE
:10A40000264C2378012B41D109F034FE2046BDE8CB
:10A41000704009F09FBEFFF71FFE022801D00428FC
:10A4200034D1237893B3FFF7D7F978BB03F0B6F9AB
:10A4300060B307F01BF928BB19491A4818220DF020
:10A44000F9FF044610BB0220FFF7BAFFF0B1FFF797
:10A45000D5FEFFF7E5FE00F04DFB022000F0B2FB59
:10A46000FFF7CEFE00F0D8FB00F056FBFFF75CFFD5
:10A47000FFF7CCFEFFF75CFEFEF7EEFA204600F099
:10A4800071FB03E007F0C8FA0028D5D170BD00BF0A
:10A490003C17002040170020D00C0020AC560020B4
:10A4A00024170020C4540020024820224FF40051F9
:10A4B0000CF09EBA00040240704702210520FEF70E
:10A4C00041BE000010B5C8B140F2234303FB01F4C4
:10A4D00040F2F313B4FBF3F407F0C8F858B10B4B98
:10A4E0009B699847F3EE0E7A20EE270ABCEEC00A6D
:10A4F00010EE103A1C44064B1C8010BD40F6E4439D
:10A5000003FB01F4A40A6400E6E700BF9499010884
:10A51000D40C0020124B1B8841F2040293421AD83B
:10A5200040F6AC5293420AD9A3F6AC50502358439C
:10A530004FF41673B0FBF3F01430C0B2704740F61E
:10A54000E442934209D9A3F6E44014235843C823B4
:10A55000B0FBF3F0F1E7642070470020704700BFC4
:10A56000D40C0020034B18780A2894BF0020012047
:10A57000704700BF46170020034B1878142894BF7B
:10A5800000200120704700BF4517002008B50B4B85
:10A590001A8840F6AB539A420ED8094A13780A2B10
:10A5A0000AD80133DBB20B2B137005D10120FFF762
:10A5B00035F9044B0F221A7008BD00BFD40C0020DF
:10A5C00046170020441700200A490B4A08881378D0
:10A5D00040F6E341884208D8142B0AD80133DBB295
:10A5E000152B137005D1FEF70FB8142B9CBF002359
:10A5F00013707047D40C00204517002008B500F0F8
:10A6000055F9014B186008BD4817002070B52A4D58
:10A61000286800F057F90646FFF71EFD10F0060FF8
:10A6200038D0FEF771F90328244C02D023780E2B82
:10A6300030D8FFF7EDFD58B140F6B8339E4207D948
:10A640001F4B1B699B0454BF01200220FEF794FDA1
:10A6500023780E2B12D800F0CCFE78B9C82E19D969
:10A66000FFF794FFFFF7B0FF00F020F9154B984279
:10A6700008D900232B6000F00BF904E040F6B83352
:10A680009E42ECE72860FFF718FF23780E2B9CBF53
:10A69000013323700C4D0D4C2B7822781343DBB221
:10A6A0004BB1FFF7B5FD30B1002028702070BDE838
:10A6B0007040FFF7B3B870BD481700204417002062
:10A6C00000040240005C26054617002045170020C4
:10A6D0000D4B10B501221A70044609F007FA0B4B16
:10A6E000186000F07BFE0A4B1C700A4B00221A70A7
:10A6F000094B96221A60094AFF231370084A137007
:10A70000084A137010BD00BF5C17002058170020C6
:10A710005517002054170020501700204C17002018
:10A720004D1700204E170020024B1878003818BF34
:10A73000012070475C1700202DE9FF4117490A22CC
:10A7400001A80DF0D6FE0024002320461A46194623
:10A75000013405F033FF6D2CF6D1114B1B7803F05B
:10A76000FD03012B0CD10F4E0F4FDFF8448001ACDD
:10A7700000250A223378B3FBF2F3EAB2934202D8FF
:10A7800004B0BDE8F08109493B7898F800200978C9
:10A7900014F8010B05F012FF0135EAE77F9101087B
:10A7A0005C170020541700204C1700204E17002083
:10A7B0004D17002010B5214A1378022B16D0032B19
:10A7C0002CD0012B07D11E491E480B7800789842E7
:10A7D00006D90A330B7009F089F91B4B186010BDBC
:10A7E0000BB90A230B7002231370F4E7154B1749BA
:10A7F0001B78174C1D2B174B0AD8FF20087000211F
:10A8000019702170144B40F6B83119600323EBE73F
:10A8100000200870FF2120701970F3E700231370E7
:10A8200000F0EEFD0D4B9B7B23B906F01FFF08B92E
:10A8300000F0DDFDFFF77CFCCDE700BF5C170020DA
:10A840005417002055170020581700204E170020DD
:10A850004C1700204D17002050170020EE53002009
:10A8600008B5084B1B785BB1074B186809F0EBF88B
:10A87000064B1B68984203D9BDE80840FFF79ABF12
:10A8800008BD00BF5C17002058170020501700209B
:10A8900007B5002303486946CDE900330AF07CFF81
:10A8A00003B000BD0C570020FFF7F2BF07B5044806
:10A8B00069460AF073FF019820F0784003B000BDAC
:10A8C0000C57002010B50446FFF7F0FF001B10BD29
:10A8D00008B50B4800224FF480610CF089F8094B51
:10A8E000074820221A834FF4007100220CF080F8F0
:10A8F0000020FEF791F9BDE80840FDF71FBD00BF3D
:10A90000000002400008024038B547F60E63984246
:10A9100004460D4630D006D8A0F5FC430B3B022B75
:10A9200013D9012038BD47F60F639842F9D1FFF7DC
:10A9300093FB10F0060FF4D0FFF76AFC0028F0D16B
:10A94000FFF7E8FDFFF7C4FEEBE7FFF785FB022802
:10A95000E7D16B795BB1104D0A3C2C7009F0C6F859
:10A960000E4B002118602878FDF7BEFDD9E70A4A92
:10A9700013700A4A1360D4E7FFF76EFB0428D0D1A6
:10A980006B79002BF3D0044B18221A7009F0AEF843
:10A99000024B1860C5E700BF64170020681700204D
:10A9A0007FB51848FEF71CFC4FF496700AF08DFB3B
:10A9B000002111220DF105000DF04CFD02238DF850
:10A9C0000030114B1A785B788DF802306FF04B0332
:10A9D0008DF8033000238DF804300523ADF80630E0
:10A9E0005A238DF8083001238DF80B3068464FF458
:10A9F0002A638DF80120ADF80E30FEF7D5FB07B0C5
:10AA000000BD00BF8A910108180C0020FFF7C8BFE5
:10AA100010B5094C237873B109F068F8B0F57A7F66
:10AA200009D2FFF7BDFFFFF717FB022801D1FDF7A1
:10AA3000B3FC0023237010BDD60C002010B5084CC9
:10AA4000206860B108F0FFFFB0F5FA6F07D9054B39
:10AA5000002121601878BDE81040FDF785BC10BDCD
:10AA6000681700206417002010B51F4C2068A8B993
:10AA70001E4A136912695B0AC2F3402203F0020303
:10AA800013431B4A1178994204D0137009F02EF831
:10AA9000206018B9FFF7E0FA20B110BD08F0D3FF2D
:10AAA0006428F7D9114A1249136912695B0AC2F383
:10AAB000402203F0020313430A789A420ED1002386
:10AAC000012A236003D0022A06D0012000E00220E0
:10AAD000BDE81040FFF778BA0420F9E70B7009F0E1
:10AAE00005F82060D9E700BF601700200000024091
:10AAF0005D17002008B5074840224FF480510BF045
:10AB000077FFBDE80840034840224FF400610BF096
:10AB10006FBF00BF0000024008B5114840F21A5252
:10AB20004FF400610BF064FF0D4840F21A524FF4ED
:10AB300080510BF05DFF0A4840F2822220210BF089
:10AB400057FF074840F2822280210BF051FFBDE8F9
:10AB50000840034840F2822240210BF049BF00BF69
:10AB6000000002400228144A0BD003281BD0012801
:10AB700015D11378F3B911490B6923F004030B6164
:10AB80000DE01378B3B90D490B6943F004030B6171
:10AB90000B490B6843F4606343F001030B6001232E
:10ABA000107018467047137823B904490B6943F0B5
:10ABB0000403E4E70023F3E76C17002000ED00E056
:10ABC0000070004008B5114B9A6822F003029A60A9
:10ABD0009A6812F00C0FFBD11A6822F480321A60C6
:10ABE0000A4A13689B03FCD40948402201210BF058
:10ABF000FFFE0748402202210BF0FAFE30BF054A53
:10AC0000136923F00403136108BD00BF003802403C
:10AC1000001C024000ED00E00BF0F4BA0120704788
:10AC200038B504460D4600F05BF8F0B129462046E1
:10AC3000FDF776FEC8B12946204600F007FAA0B11C
:10AC40002946204601F018FA78B129462046FFF738
:10AC5000E5FF50B12946204602F06EFA28B1294698
:10AC60002046BDE8384001F085BD002038BD08B55C
:10AC700001F040FDFEF70AFE00F070FA00F00CFC57
:10AC8000012008BD08B5FFF7F2F800F089FA02F0DC
:10AC9000F3FA00F083F802F021FD08BD38B5044650
:10ACA0000D4602F0A7FD28B129462046BDE83840F0
:10ACB000FFF7B6BF38BD10B505F089FD044608B1F1
:10ACC000FFF7D5FF204610BDFFF7DCBF08B501F048
:10ACD000C1F901F03DFBBDE80840FFF7F9BD0000F8
:10ACE000A0F5FC4370B50A2B4DD8DFE803F0131331
:10ACF0001313060C2A2A2A2A17004B79C1202BB1DC
:10AD000002F0F2FE04E04B79C220F8E702F087FF80
:10AD1000002070BD1D4BC05C4B79F0E74B79002BD8
:10AD2000F6D01B4B1A783AB90122E3201A7002F0D0
:10AD3000DBFE2C2002F0D8FE08F0D8FE154B186080
:10AD4000E6E74D79144CA0F5FC400638ADB914F88F
:10AD5000206004EB8004EBB29E42D9D92344013534
:10AD6000587802F05CFFF6E723440135587802F08A
:10AD7000BBFEEBB29E42F7D8CAE714F8206000256C
:10AD800004EB8004F5E70120C3E700BFA515010827
:10AD900074170020701700209593010838B50A4DEC
:10ADA0002B787BB1094C206808F04DFEB0F5FA7F96
:10ADB00008D9E32002F033FF2C2002F030FF0023FB
:10ADC0002B70236038BD00BF74170020701700205F
:10ADD00038B5044602F015FE0546B8B1204602F02B
:10ADE00013FE06F043FC044680B906F009FE224635
:10ADF0002146204605F0F4FB01F07CFC044BDB68A7
:10AE00009847FEF7BFFF08B106F0EEFD284638BDB3
:10AE100094990108014638B50446762301F8013BB0
:10AE20002E25102201200DF0CBF9E11CA570102277
:10AE300001200DF0C5F9611D2571102201200DF0D2
:10AE4000BFF92023A371E01D0249BDE83840142258
:10AE50000DF04FBB9B91010870B50C46154630B9FB
:10AE6000074B5B6929462046BDE870401847FDF74F
:10AE70004BFD032803D1034B5B6A002BF2D170BD5D
:10AE80009C100020200C002070B50B78012B06468A
:10AE90000C4615460FD003F16002D2B20B2A15D82A
:10AEA000A03B0B2B12D8DFE803F013192228111155
:10AEB000112E6911707748B13422CA700A710A22C2
:10AEC0004A71CB71A02211238A710B72002070BDD0
:10AED000022300224B708A70E37002E0481CFFF7E7
:10AEE00099FF2A4621463046FFF7B6FF52E000237D
:10AEF0004B70F7238B700323EEE72B4B187802F08F
:10AF000073FD6070EDE74B78013B122B31D8DFE821
:10AF100003F00A1217171C1C21212121262630308C
:10AF20003030302B2B0000238B7002220B71DF237B
:10AF3000CA704B71D5E72946204600F0FFFAD0E7EA
:10AF40002946204601F056F8CBE72946204601F075
:10AF500029F8C6E72946204601F03AF9C1E7294613
:10AF60002046FDF763FDBCE72946204600F0FAFACB
:10AF7000B7E7FF230B7000234B70B2E7B0FA80F005
:10AF80002A46400901F09CFAABE728B92946204639
:10AF9000FEF76EFB01209AE7B6FA86F02A462146B4
:10AFA000400900F051F9F5E7131A0020FFF76CBFD4
:10AFB000FFF752BF08B508F099FD014B186008BDB6
:10AFC0007C17002013B503F0BAF803F0A0F81C4B6F
:10AFD0001C781C4B00221A7003F0FFFD03F0FFFDEC
:10AFE00008B903F03BFE184803F008FE204603F0C2
:10AFF000F4F800F0CDFF01F01DF806F07FFC06F03C
:10B00000EBFA05F0A3FA01F033F9FDF705FD41F283
:10B0100088300AF05AF80220FEF702F900F0D5FA5B
:10B02000FF23ADF8043000238DF80630FA21019B90
:10B030000322084602B0BDE8104000F0F3B900BF9B
:10B04000131A002077170020A85400204A2810B5B2
:10B050006AD005D80D2826D01D2840D0012010BD6B
:10B0600020F0020345F2212293420ED04F28F5D161
:10B070004A79002A50D0354A1378002B42D0013348
:10B08000DBB2042B88BF012305E0314A49791378EC
:10B0900019B143F001031370E0E723F001031370CB
:10B0A0002C4B1960DAE72A4C4A7923785AB143F0DD
:10B0B0000203072B237001D1FFF77CFF2078C043E8
:10B0C00000F00100CBE723F002032370214B1A604C
:10B0D000214A13789807C1D523F00203DBE71C4C03
:10B0E0004A79237812B143F00403E2E723F0040322
:10B0F0002370184B1A60184A13785907AED523F0FD
:10B100000403C8E7124A137843F00803192B13709D
:10B11000A4D1FFF74FFFA1E70D490B7823F00803F7
:10B120000B700C4B1A6099E74A7952B1074B1A78A9
:10B1300012B100221A7091E7054A137843F0100308
:10B14000E4E703490B7823F01003E9E777170020C1
:10B15000781700207C1700207517002008B50F4BCA
:10B160001B78C3B1013B032B08D8DFE803F00209C9
:10B170000D10FF221146104605F032FA002008BDDE
:10B1800000221146FF20F7E70022FF21F3E700210C
:10B19000FF220846F0E70120F1E700BF7717002003
:10B1A00010B5114C206890B108F04DFC40F6B83352
:10B1B00098420CD9002323600C4C2378072B07D12D
:10B1C0000B4B06221A70FFF7FDFE0023237010BD03
:10B1D000192BFAD106F04AFA08B906F08FFB054B95
:10B1E00001221A70F1E700BF7C17002078170020B9
:10B1F000751700207717002070B588B00D461646E9
:10B2000000212022044668460DF024F9AB23324683
:10B2100029460DF101008DF800300DF06AF96946FC
:10B2200001230022013311F8010FDBB21D2B024470
:10B23000F8D1ADF81E206946202284F00100FFF706
:10B240000BFE08B070BD000030B50B78AB2B89B099
:10B25000044625D10A4601F11C00002312F8015FC3
:10B260002B4490429BB2F9D1887FDAB2904217D139
:10B27000CA7FB2EB132F13D14B780CB9072B0FD920
:10B28000013B082B0CD8DFE803F0050D0B142A0B4B
:10B290003D456B003E4B8A781A703E4B00221A6087
:10B2A00009B030BD8B783C4A003B18BF01231370B6
:10B2B000F6E78B78A12B07D0A22BF1D1C978374BB9
:10B2C000102251B11A83EBE7C878003818BF01206B
:10B2D00009B0BDE83040FDF7C3BF5A83E0E705235E
:10B2E0008DF80030FEF7B8FE2D4B8DF801001B697C
:10B2F00003F001038DF80230032269460120FFF7B5
:10B300007BFFCDE788784E28CAD809B0BDE8304029
:10B31000FDF7BEBF47F2086310220DF102010120C4
:10B32000ADF800302E250CF04BFF102201A90120B2
:10B330008DF803500CF044FF10220DF1060101209E
:10B340008DF805500CF03CFF2023142215498DF890
:10B35000073002A80DF0CDF81C2269462046CEE742
:10B3600040F609431049ADF8003004220DF1020007
:10B370000DF0BFF80D4904220DF106000DF0B9F8EB
:10B3800004220B490DF10A000DF0B3F80E22E4E798
:10B39000771700207C17002076170020000002405D
:10B3A000000402409B910108107AFF1F207AFF1FC2
:10B3B000307AFF1F084B1B7807B553B14FF48173E8
:10B3C0008DF80610032201A90120ADF80430FFF723
:10B3D00013FF012003B000BD7617002008B506F06A
:10B3E00045F918B9BDE8084006F06EBA08BD06F088
:10B3F00021B908B506F03AF9003818BF012008BD98
:10B4000010B5074C08221721204604F0A7F923782D
:10B41000032B03D8BDE8104005F098B810BD00BF5D
:10B42000E054002013B50D4C01930023637240F2E9
:10B430000113E18022726381A08008F057FB019B19
:10B44000A3811B0C2060A373FFF7C8FFA27B617B65
:10B45000207B02B0BDE8104005F0C2B88017002084
:10B4600008B50B4B0022DA72FFF7CAFF06F0FEF8B0
:10B47000014658B9024605F0B3F801F03BF9054B17
:10B48000DB689847BDE8084006F0D4B808BD00BFA7
:10B49000801700209499010810B5174CE37A4BB33C
:10B4A000206808F0D0FAA37AC3B1A28882421BD8E0
:10B4B00008F01CFBA37A206083F00103A372ABB1F8
:10B4C000637A227A0133DBB29A42637208D9A27B93
:10B4D000617B207BBDE8104005F082B8E288E5E79B
:10B4E000BDE81040FFF7BCBF002BF0D11A4619464B
:10B4F0001846EFE710BD00BF80170020014BD87A37
:10B50000704700BF801700207047704708B5FFF7ED
:10B51000FBFFBDE8084008F07BBA08B5FFF7F5FF70
:10B52000BDE8084008F075BA08B500F031FD00F03C
:10B5300081FDBDE8084000F09BBE000038B509223F
:10B540000023012504468370C5700271044905304B
:10B550000CF0CFFF0223A373E573257438BD00BF41
:10B56000AF9101080378A72B06D14378122B04D0A2
:10B57000132B0BD0FF230370704700238370054B00
:10B580001B78DB0943F00403C37070470123837009
:10B59000704700BFA854002010B588B02022044690
:10B5A000002168460CF056FFA32320468DF800309A
:10B5B00002F01AFA20218DF80100684606F0DAFC44
:10B5C000204602F0FDFD08B010BD00B589B0202274
:10B5D000002168460CF03EFF41F2A7132021684687
:10B5E000ADF8003006F0C6FC09B000BD70470000A1
:10B5F0002DE9F843144E8146884615461C4643B152
:10B600000123337008F072FA104B18600020BDE877
:10B61000F8833778002FF9D00C4B186808F013FA2C
:10B620000B4B1B788342F1D8AA00494640460CF0E8
:10B6300001FF28B1AA00494640460CF05AFF3C469B
:10B64000002333702046E2E7941700209017002073
:10B65000DC1700207047000010B5012104460CF0F3
:10B660007BFD064B0421186020460CF075FD044B51
:10B67000186008F071FA034B188010BD9C17002069
:10B6800098170020A017002010B5074C206818B1AB
:10B690000CF0A0FD00232360044C206818B10CF0CE
:10B6A00099FD0023236010BD9C17002098170020EF
:10B6B0002DE9F04117460646884608F04DFA1C4A27
:10B6C000DFF878C0138810801A4AC31A15681A4A1E
:10B6D0009BB2FF2B126828BFFF230024DBB2043A81
:10B6E0002046E1B28F4201D8BDE8F08156F824101F
:10B6F00052F804EF8E4507D09CF800E085F800E092
:10B70000116001350134ECE72978994202D9C91A50
:10B710002970F6E70029F4D058F8241048F824E0FE
:10B720008EEA0101014314BF012000200021EFE750
:10B73000A01700209C17002098170020DC1700207D
:10B7400070B5044600EB800080000CF03BFD084B18
:10B750001860142306465C430025A54200D170BD45
:10B760007019142200210CF075FE1435F5E700BFA6
:10B77000A817002010B5044C206818B10CF02AFD61
:10B780000023236010BD00BFA81700202DE9F74F4C
:10B79000464D474C95F800A001930023804689460A
:10B7A00093462370BAF1000F69D008F09FF9414A1F
:10B7B00013681060C31AFF2B1CD89BB1D8B23E4B44
:10B7C0002478196800222A7017469446D3B29B4504
:10B7D00012D80FB1364B1C70BCF1000F02D0334BA6
:10B7E00001221A70019B002B50D1314B187803B005
:10B7F000BDE8F08FFF23E1E74E1E002516F8013F5C
:10B80000BBB198421BD34FF00003337059F822703C
:10B8100058F8223087EA030E0123AB400EEA0303F7
:10B820001C4387EA030749F8227014BF012400244F
:10B8300057460135142DE1D114310132C6E71B1AE8
:10B840003370D446F5E759F8231058F8230006FB67
:10B85000035280EA010C00212CFA01F010F00100E3
:10B860000BD0107810B938781070012401311429E8
:10B8700002F10102F0D101330EE01070F6E7019BF6
:10B88000002BB2D008F032F90A4B18600A4B0B4F6C
:10B890001D6800231C461426DAB29345D3D8002C29
:10B8A000A3D0024B01221A709FE700BFA31700200C
:10B8B000A2170020A4170020A8170020DC170020E2
:10B8C00010B504460CF07EFC044B044418600023C1
:10B8D000A04200D110BD00F8013BF9E7B4170020E9
:10B8E00010B5044C206818B10CF074FC00232360E0
:10B8F00010BD00BFB41700202DE9F74FDFF804A1F9
:10B900003C4E9AF80050DFF800B101901C4600232D
:10B91000894617463370002D69D008F0E7F8364B9A
:10B920001A681860821AFF2A38D8BAB1334B1B68DC
:10B930000020D2B28AF800008BF8000007EB030861
:10B940008446864698452BD110B101238BF80030F0
:10B95000BCF1000F02D001238AF8003044B92C4614
:10B960009BF80030B3B11CB908F0C0F8224B186046
:10B97000224A31781468224D00238BF800309C460F
:10B98000DAB297421BD8BCF1000F03D001238AF82A
:10B9900000303170307803B0BDE8F08FFF22C5E78A
:10B9A00013F8011B0029CDD08A4233BF891A03F84E
:10B9B00001EC284603F8011C38BFAC46C2E7019AE7
:10B9C00052F8230059F8232082420ED0E25C62B97B
:10B9D0002A78E25459F8232049F8230042400A43C8
:10B9E00014BF012100214FF0010C0133C8E7002CE6
:10B9F000B6D0B9E7AC170020B0170020B41700206C
:10BA0000DC170020AD170020B817002070B50446E1
:10BA100000EB800080000CF0D5FB084B186014236D
:10BA200006465C430025A54200D170BD7019142262
:10BA300000210CF00FFD1435F5E700BFC017002002
:10BA400010B5044C206818B10CF0C4FB002323602F
:10BA500010BD00BFC01700202DE9F04F464CDFF8A5
:10BA600028B12678454F85B01D46002303900291EA
:10BA700001928BF80030002E7BD008F037F8404B55
:10BA800019681860411AFF293DD8B9B13D4B002211
:10BA9000D3F800C02270C9B23A70904696469146DB
:10BAA0000198D3B2984230D8B8F1000F01D00123E9
:10BAB0003B70BEF1000F01D0012323703DB9354624
:10BAC0003B78DBB11DB908F011F82D4B18602D4AF9
:10BAD000DFF8B8A0D2F800E0029A00233B70101FF4
:10BAE0001E464FF014084FF001090199DAB2914255
:10BAF00021D81EB101238BF8003023709BF8000081
:10BB000005B0BDE8F08FFF21C0E70CF1FF330CF169
:10BB1000130A13F8010F40B1814233BF401A83F872
:10BB20000090B046187038BFB6465345F1D10CF1BD
:10BB3000140C0132B4E7039A416852F823204A40BA
:10BB4000029208FB03E70022029D09FA02FC15EAB3
:10BB50000C0F07D0BD5C2DB99AF80060BE5481EA85
:10BB60000C0101260132142AEED140F8041F0133E2
:10BB7000BBE7002DA4D0A6E7BB170020BA17002012
:10BB8000BC170020C0170020B9170020DC170020C8
:10BB900038B5044600EB800080000CF013FB094B25
:10BBA000186014235C430023A34200D138BD002257
:10BBB00085180132E95C142A21F0FE01E954F7D11D
:10BBC0001433F1E7CC17002010B5044C206818B1ED
:10BBD0000CF000FB0023236010BD00BFCC17002039
:10BBE0002DE9F04FDFF8E091DFF8D88199F8007087
:10BBF00085B01E46002300900C46019288F8003064
:10BC0000002F00F0D58007F071FF6B4A13681060B9
:10BC1000C31AFF2B4CD823B3DAB20292674A6849A1
:10BC200012680392002298F800C089F800200A7078
:10BC30009246914690460198D1B288423AD8BAF1DC
:10BC4000000F02D05E4B01221A70B9F1000F02D032
:10BC50005C4B83F800C0B8F1000F02D05A4B0122B0
:10BC60001A7046B93E46564B1B78E3B11EB907F031
:10BC70003DFF514B1860514B514A1D68DFF84CE1B4
:10BC8000002313701E46184614274FF0010C01992B
:10BC9000DAB2914249D816B14A4B01221A7010B15A
:10BCA000494B01221A70474B187805B0BDE8F08F58
:10BCB000FF23B1E70399142000FB021E00201EF8A9
:10BCC000001001290EEB000B1FD9B3EB510F21DB44
:10BCD00021F0FE010EF80010C90724D4009954F891
:10BCE000229051F82210012589EA010105FA00FB92
:10BCF00001EA0B0B89EA0B015CEA0B0C44F82210F9
:10BD000014BFAC464FF0000CB94601301428D6D110
:10BD1000013290E7029DC5EB510868F347018BF8AB
:10BD20000010B846F1E7BA46EFE7009A52F8231040
:10BD300054F8232081EA020907FB035100220CFA80
:10BD400002F819EA080F12F801A002EB010B20D04B
:10BD5000BAF1010F27D8009850F8230018EA000F15
:10BD600014BF0120002060F3000A02F801A09EF831
:10BD7000000060F3470A1AF0010F02F801A006D094
:10BD800054F8230080EA080044F82300012601202B
:10BD900009E0BAF1010F06D91AF0010803D168F3DE
:10BDA000470A8BF800A00132142AC8D101336EE78C
:10BDB000002E3FF458AF5AE7C8170020CC170020D8
:10BDC000C5170020C4170020C6170020DC1700206C
:10BDD0007047F8B507460E461C465BB19500014614
:10BDE0002A4630460CF026FB30B12A46394630460A
:10BDF0000CF07FFB2046F8BD0446FBE770470000CF
:10BE000008B5064B2620197803F07AFC044B27204E
:10BE10001978BDE8084003F073BC00BFDD170020AF
:10BE2000DC17002010B5034C646804B1A047002063
:10BE300010BD00BFD0170020024B9B6803B118470C
:10BE4000704700BFD01700202DE9F041284F294E40
:10BE50003B78834205460C4604D133788B4201D1AE
:10BE6000002A43D0FFF7E8FF234B3D703470002CCD
:10BE700036D0062D2ED8DFE805F0040B11171D2350
:10BE800033001E4A1A601E4A5A601E4A9A6021E018
:10BE90001D4A1A601D4A5A601D4AF7E71D4A1A607A
:10BEA0001D4A5A601D4AF1E71D4A1A601D4A5A6030
:10BEB0001D4AEBE71D4A1A601D4A5A601D4AE5E714
:10BEC0001D4A1A601D4A5A601D4A9A60220601D511
:10BED0007F2232701B684BB1BDE8F0410620184745
:10BEE000184A1A60184A5A60184ACFE7BDE8F0812C
:10BEF000DD170020DC170020D0170020EDB500086A
:10BF0000F1B5000855B6000859B60008B1B60008EA
:10BF100089B6000841B700088DB7000875B700085A
:10BF2000C1B80008F9B80008E1B800080DBA000867
:10BF300059BA000841BA000891BB0008E1BB0008EB
:10BF4000C9BB0008D1BD0008D3BD0008FDBD000875
:10BF500038B50E4D00232B7002F041FE08B902F0F7
:10BF60007DFE262003F06AFB0446272003F066FBD3
:10BF7000072C2A78014634BF20460420131A5A425F
:10BF80005A41BDE83840FFF75FBF00BFDD17002012
:10BF900008B5012232210420FFF756FFBDE8084012
:10BFA000FFF72EBF08B54278052A034604D0062ABB
:10BFB0000CD0FF22027008E000228270C2700B4A8F
:10BFC000127802710A4A1278427108BD80780628F8
:10BFD00008D80022D9789A70FFF736FFBDE80840EC
:10BFE000FFF70EBF01229A70EFE700BFDD170020B8
:10BFF000DC17002038B54378032B044604D0042B0B
:10C000000DD0FF23037007E0094D012225212846AA
:10C0100003F0A4FB2B78E3700023A37038BD044821
:10C02000A37803700122252103F050FBF4E700BF41
:10C03000DE17002008B53C22002105480CF00AFA62
:10C04000BDE8084002483C22282103F03FBB00BF66
:10C050000154002008B506483C22282103F07EFB4D
:10C06000BDE808400348142200210CF0F3B900BFDA
:10C07000015400203D5400202DE9F84F524DDFF8C7
:10C080004CE1844600242E464FF001092A78E2B1A3
:10C0900095F801A0A878E24501D0844515D1ACEB14
:10C0A000000391F805805F425F411EF80430B8F14B
:10C0B000000F49D009FA07F873B908F0030868F3CC
:10C0C000830368F301030EF804300134142C05F1E6
:10C0D0000305DBD1012068E003F0030B1BEA080F26
:10C0E000F3D143F00303013A0EF80430042A5BD87D
:10C0F000DFE802F003031016200004EB440434448C
:10C1000084450CBF2346631C3C44587801F087FDEE
:10C1100060780CE004EB440401F081FD3444F7E75F
:10C1200004EB44043444504601F079FDA07801F05A
:10C13000DBFC39E004EB44043444844518BF01348B
:10C14000607801F06CFD2FE003F0030ABAF1030FF1
:10C1500037D1BCEB000818BF4FF00108012101FAEC
:10C1600008F101F0030161F3830361F30103042A81
:10C170000EF8043016D8012A4FEA440517D02B19BF
:10C1800033441F44787807F091FA10B1787801F0C1
:10C1900046FD254435444544687807F087FA18B9C8
:10C1A0006878C4E7052A07D00020BDE8F88F254449
:10C1B00035443D446878C4E704EB440434444444C3
:10C1C000A6E70EF8048080E7015400203D540020CB
:10C1D00038B54378073B0446032B42D8DFE803F029
:10C1E00002091A3B1423C370012383F00103A370D7
:10C1F00038BDC278092A37D881788B18142B33DCE4
:10C200001A4B01EB410102EB4202194403300CF0DE
:10C2100070F9E9E7C278092A26D880788318142BA8
:10C2200022DC21460025EBB2934207D30F4B00EBF3
:10C23000400002EB4202211D1844E8E70B79052B70
:10C2400012D82BB14B79002BCFD08B79002BCCD0CF
:10C2500001350331E7E705483C22282103F036FA8F
:10C26000C2E7FF230370BFE70023BEE701540020AD
:10C270002F4B70B518460024FF25042264211C7042
:10C280009C70DD705D7003F021FA2A4B0122184684
:10C2900068211C7003F01AFA274B01221846692105
:10C2A0001C7003F013FA254925484FF4A2720CF0D4
:10C2B00020F923484FF4A2726A2103F007FA2149BA
:10C2C00021486C220CF015F91F486C224FF4D771ED
:10C2D00003F0FCF921464F221C480CF0BBF81B4A26
:10C2E0007F210523561E02F8013C557091700220F3
:10C2F0006FF077023271132386F8280086F82C201D
:10C3000086F82B103046502240F21A21737186F8BD
:10C310002D30B471F47186F82A5086F82E4086F8D4
:10C320002F4003F0D3F9BDE8704000F041BD00BFDD
:10C3300051540020A119002055540020540D002014
:10C34000DF170020E80C002030190020575400208F
:10C3500010B54FF4A2721C4C1C491D480CF0C9F8D2
:10C3600040F249210F2003F0E7F92046042264211E
:10C3700003F0F4F917480122682103F0EFF994F96A
:10C3800003301548002BA8BF80234FF001024FF067
:10C390006901A8BFE37003F0E1F90D484FF4A27200
:10C3A0006A2103F0DBF90D486C224FF4D77103F0DA
:10C3B000D5F90B48502240F21A2103F0CFF9BDE81D
:10C3C000104000F0F5BC00BF51540020540D002077
:10C3D000DF170020A119002055540020301900203B
:10C3E0005654002002480122682103F06FB900BFB3
:10C3F000A119002070B545781C2D1DD80678731939
:10C400006C2B19DC421C0023D9B28D420ED8841C3F
:10C410000A482A46214630440CF06BF808482A4660
:10C42000214630440CF065F8012070BD12F8011F60
:10C43000012903F10103E7D90020F6E730190020B4
:10C44000E854002070B58278032A1FD80378022BA5
:10C450001CD84578A918052918DC0021461FCCB244
:10C46000A2420ED8044603EB830314482B4400EB8E
:10C47000C30004EBC205AC420AD100F099FC0120D4
:10C4800070BD013116F83140172CE8D90020F7E7CC
:10C490000646E37806F8083B237906F8073C6379FB
:10C4A00006F8063CA37906F8053C0422E11D104479
:10C4B0000CF01FF808343046DDE700BF565400206A
:10C4C0002DE9F0434B78013BA3B00C460E2B00F254
:10C4D0000181DFE813F00F0014003700430054001F
:10C4E00057007C007F008500A000BB00BF00CC008F
:10C4F000D000FB000123CB70002323711BE07848A0
:10C500000422642103F0E2F876480122692103F055
:10C51000DDF875484FF4A2726A2103F0D7F873482A
:10C520006C224FF4D77103F0D1F87148502240F2D9
:10C530001A2103F0CBF8012080F00100A07023B095
:10C54000BDE8F0830123CB70654B1A780A715A78E5
:10C550004A719A78DB788A71CB71ECE7604B8A7804
:10C560001A70CA785A700A799A704A79802A38BF44
:10C570008022DA7007F026F8FEF72AFCDBE76C234E
:10C58000E370D8E78F78062F4FF0000500F2A58002
:10C590000322114401A801950BF0ABFFA61C4FF03C
:10C5A000FF084FF00109019A8DF8088009FA05F398
:10C5B000134204D002AAE9B2384603F0E3FF013582
:10C5C0009DF8083006F8013F142DECD1B3E7454B38
:10C5D0001B78D5E78B78042B7FD8424A1370AAE7E3
:10C5E000C878092879D88B783F4A03EB4303134472
:10C5F000CA1C0021CDB285429DD213F8035B02F81C
:10C60000035B13F8025C02F8025C13F8015C02F8A9
:10C61000015C0131EEE7C87809285ED88B780A1DE5
:10C62000314903EB43030B440021CDB2A84282D928
:10C6300012F8035B03F8035B12F8025C03F8025C78
:10C6400012F8015C03F8015C0131EEE70223CB70C4
:10C65000052352E7CA781D2A3FD88B7899186C2990
:10C660003BDC2249E01C19440BF043FF63E7881CC4
:10C67000FFF7C0FE60E70A79032A2ED88B78022BD9
:10C680002BD8C9788818052827DC03EB83030B44D3
:10C690001749254601EBC30104EBC207BD423FF435
:10C6A0004AAF0E46042216F8083BEB7016F8073C1A
:10C6B0002B7116F8063C6B7116F8053CAB711144F2
:10C6C000E81D0BF016FF08353146E7E7881CFFF739
:10C6D000B9FE31E7FF230B702DE700202CE700BFE8
:10C6E0005154002055540020DF170020301900203D
:10C6F0005654002013B5FDF7AFFC012803D1164BAB
:10C700001B78052B26D0154CA2786378E07843EA95
:10C71000022343EA004003F0C7FBC0F307238DF870
:10C720000400C0F307408DF805308DF8060006F0D0
:10C7300049FFC2070ED52378DB070BD49DF80630DE
:10C740009DF805209DF80410252002B0BDE810409A
:10C7500003F034BF02B010BDAC560020515400208D
:10C7600008B5FFF7C7FFFDF7FDFABDE8084004F084
:10C770002BB8000038B504460D4604F0A9FF182870
:10C7800003D16D7935B9012038BD04F0A1FF172818
:10C79000F9D1F6E7A4F5F04023380728F3D8DFE80D
:10C7A00000F0070707072742041904F05FFF08B9E4
:10C7B0000020E9E704F08CFF1728F9D1244B197900
:10C7C0001031FF2928BFFF21C9B219711B2002F0C7
:10C7D0005DFFEDE704F04AFF0028E9D004F078FFA0
:10C7E0001728E5D11A4B1979103921EAE171EBE7E5
:10C7F000174A1378990702D105F063F8D8E7D37880
:10C800001033FF2B28BFFF23DBB21946002030294D
:10C8100005D9002818BF0B46D3701A20D7E710316E
:10C82000C9B22846F3E70A4C23789A07C0D0E178CA
:10C830003029E1D91039C9B21A20E17002F026FF7F
:10C8400023789B07B4D0E378302BB1D8D4E700BF6E
:10C85000E054002084B003EB8302BDF81030019057
:10C8600013449BB2FF2B28BFFF23C0F30740DB43D9
:10C8700050FA83F3FF2B28BFFF238DF80630019B6E
:10C880000020DAB262F30700C3F3072262F30F203D
:10C89000C3F3074363F3174004B0704784B0C0F399
:10C8A0000741BDF810200190D31A9BB2FF2B28BF7F
:10C8B000FF23DBB283F0FF021144FF29034428BFAA
:10C8C000FF218DF804308DF80610019B0020DAB2AC
:10C8D00062F30700C3F3072262F30F20C3F3074399
:10C8E00063F3174004B070472DE9F041064686B067
:10C8F0000078164FDFF8588003F071FFC0F307256A
:10C90000C4B2E3B29D4206D86B2D8CBF002001203B
:10C9100006B0BDE8F08104EB44010322394404A8C9
:10C920000BF0E7FD98F803308DF81230049803F00F
:10C93000BBFAC0F307430093C2B2C0F307232146FA
:10C94000F07803F053FE0134DBE700BFDF1700206F
:10C95000E05400202DE9F047DFF8009186B007464B
:10C96000007803F03CFF394B99F804201B88ADF8A0
:10C970000C00D20802FB03334FEA232AC3F3072338
:10C98000C3F38015DE436D4203F00F0206F00F067D
:10C990005D4013F0400F06F10106C0F3072808BF01
:10C9A0001646C4B2C5F30115E3B2984507D8B8F1ED
:10C9B0006B0F8CBF0020012006B0BDE8F087244B30
:10C9C00004EB44011944032204A80BF092FD214B0F
:10C9D00003EB450213F81530527812FB06F203EB15
:10C9E0002213DBB25A42D2B21AF0800F18BF13469C
:10C9F0005A4213F0800FD2B218BF13465B0099F869
:10CA00000320DBB202FB03331B128DF812300498B3
:10CA100003F04AFA104A8DF81400C0F30723125DA0
:10CA20008DF815307B78C0F307401A428DF8160058
:10CA300009D0C3B200939DF814209DF81530F87802
:10CA4000214603F0D3FD0134AEE700BF545500206A
:10CA5000DF170020A9930108E80F0020E054002010
:10CA60002DE9F04F3A4EDFF8F0A0DFF8F09087B0F4
:10CA70000746007803F0B3FE3379ADF80C000133BC
:10CA8000FF2BC0F30728C4B228BFFF234FF6FF7562
:10CA9000B5FBF3F5E0B2804507D8B8F16B0F8CBF5A
:10CAA0000020012007B0BDE8F08F7B781AF8042041
:10CAB0001A423AD099F80020DFF8A4C0013A52B2E5
:10CAC000130634D52B4632790132FF2A28BFFF22C4
:10CAD00002FB03334FEA232B1E4B04EB44011944A2
:10CAE000032204A80BF005FD5B46FF2BA8BFFF2324
:10CAF000F278DB43DBB202FB03331B128DF81230FA
:10CB0000049803F0D1F9C0F307428DF81620D2B291
:10CB1000C0F3072300928DF814008DF81530C2B2CF
:10CB2000DBB2F878214603F061FD0134B2E71CF86E
:10CB30000230834209D102F10C0109EB41014B782B
:10CB4000897843EA0123AB42BDD3013AB8E700BF7D
:10CB5000E0540020DF170020E80F00205855002087
:10CB6000695500202DE9F04F8DB089460490087872
:10CB7000079203F034FEC0F3072303935D4BADF837
:10CB800024001B780593C5B25B4B05EB45061E449C
:10CB90005A4B03EB450703F5A8730693039AEBB2D0
:10CBA0009A4206D86B2A8CBF002001200DB0BDE848
:10CBB000F08F069A99F80130525D1A4232D05049EE
:10CBC00003220AA80BF095FCDDF81080494B0024E5
:10CBD00003EB080A059A5FFA88F39A4226D833785D
:10CBE0008DF8283073788DF82930464BDB7803FBBD
:10CBF000044424128DF82A400A9803F055F9C0F332
:10CC000007428DF82E20D2B2C0F3072300928DF890
:10CC10002C008DF82D30C2B2DBB299F80300294602
:10CC200003F0E4FC033601350237B7E71AF8013F99
:10CC300097F8781097F87920C91A9AF80830D21A1C
:10CC400002FB02FC01FB01CC1FFA8CFCBCF1010FC2
:10CC50002ED85FFA8CF32B4890F804C0254808F1D1
:10CC60000C0E00EB4E0E0CF1010C9EF801009EF82C
:10CC700002E08DF82A40BCF1FF0F28BF4FF0FF0CF7
:10CC800040EA0E200CFB0000C0F30F20079C009030
:10CC90000A98A047C0F307238DF82800C0F3074087
:10CCA0008DF829308DF82A00C4B208F1010891E707
:10CCB000BCF5F75F9DBF4FEA5C1E0EF1080E5FFAF0
:10CCC0008EFE4FF0FF0E012000EB0E035B1003FB06
:10CCD00003FB1FFA8BFBE34507D9013B5FFA83FE99
:10CCE0007045F1D90138C3B2B5E7FF2BB3D001339A
:10CCF000D8B2F5E758550020DF170020980E002025
:10CD0000E1540020E05400200146024A0020FFF7D1
:10CD100029BF00BF55C80008044B054A1B78013BDA
:10CD200023EAE3730146D8B2FFF71CBF5855002031
:10CD30009DC80008094B1B78013B032B0BD8DFE88B
:10CD400003F002040608FFF705BEFFF789BEFFF7F0
:10CD5000DBBFFFF7E1BFFFF7C7BD00BF55540020A1
:10CD6000F8B50F4C0F4F104D104E002323703B7041
:10CD700006F0BCFE2B783060102B02BF237843F006
:10CD80000103237000237B7006F0B0FE95F8283075
:10CD90007060102B02BF237843F002032370F8BDAC
:10CDA000231900202C19002056540020241900209B
:10CDB000124A002330B4124C13701846194614F866
:10CDC0003350A5B90133052BF9D100B111700023FF
:10CDD0000C4C53701846194614F8335055B90133AA
:10CDE000052BF9D100B1517030BCFFF7B9BF01314B
:10CDF0000120E7E701310120F1E700BF2E190020F3
:10CE0000565400207E5400202DE9F04F8378DFF83F
:10CE1000F88287B005465BB1B649B7486C220BF083
:10CE200068FB002388F8003088F80130FFF798FF8E
:10CE3000DFF8D8920123DBB2EB70029304F090FC90
:10CE4000EC788DF81400C0F3072318F804A08DF8CF
:10CE5000153004EB84035344012219F83330019355
:10CE6000A64B01991B78A24010290CBF1343934392
:10CE7000A24A1370A24B1B5DC0F30740012B8DF833
:10CE80001600C6B240F2AF809E4F04EB840B57F8F9
:10CE9000240006F0D8FD0BEB0A0309EBC303597914
:10CEA0001A7942EA0122997942EA0142D97942EAA1
:10CEB0000162904223D906F019FE18F804A047F841
:10CEC00024000AF1010A5FFA8AFABAF1050F28BFB5
:10CED0004FF0000A0BEB0A0308F804A009EBC303A8
:10CEE00059791A7942EA01229979DB7942EA0142B9
:10CEF00052EA036200F00C813246002721E057F825
:10CF00002400039306F09FFD039B5A7993F804B025
:10CF10004BEA022B9A79DB794BEA024B4BEA036B23
:10CF2000ABF57A739842E7D957F8240006F08BFDE9
:10CF3000ABEB000272434FF47A730127B2FBF3F2BA
:10CF4000D2B2DFF8C0B103925BF8240006F07BFD9B
:10CF5000B0F57A7F039A0BD25BF8240006F073FDDC
:10CF6000012700FB06F24FF47A73B2FBF3F2D2B260
:10CF700004EB8403534419F8333023B918F8041030
:10CF8000013108F8041018F804100393042984BF31
:10CF9000002108F8041004EB8404544409EBC40491
:10CFA00094F802B094F801A05946504604F0D4FB1E
:10CFB000E07804F0E7FC039B019AD21A18BF012223
:10CFC000013BAA70172B00F29280DFE803F02134B6
:10CFD000383C4044484C5054585C6064686C7074F1
:10CFE000787C8084888C0BD1019B4BB92822019BD3
:10CFF00002FB049212F833702FB108F804309A46FD
:10D0000032460027B4E70133052BF3D13246AFE7B0
:10D01000284603F03BFF044627B1324659465046A6
:10D0200004F09AFB029A0023002A7FF404AF204602
:10D0300007B0BDE8F08F284603F03AFDEBE728463D
:10D0400003F05AFCE7E7284603F038FDE3E72846FB
:10D0500003F03AFDDFE7284603F03CFDDBE7284616
:10D0600003F03EFDD7E7284603F04CFCD3E7284603
:10D0700003F0BAFCCFE7284603F0BCFCCBE7284618
:10D0800003F046FCC7E7284603F09EFDC3E72846A9
:10D0900003F0A0FDBFE7284603F038FFBBE72846B2
:10D0A00003F088FFB7E7284604F018F8B3E72846EE
:10D0B00004F0C6F8AFE7284603F010FEABE72846B9
:10D0C00003F0B8FEA7E7284603F0BCFEA3E7284616
:10D0D00003F0C0FE9FE7284603F0CAFE9BE7284600
:10D0E00003F024FA97E7284603F022FA93E7002496
:10D0F00092E700BF30190020E854002023190020D7
:10D100002E190020241900202C190020565400202C
:10D11000012487E752B1064B1B7803F0FC03602B18
:10D1200004D1044B1B780BB103F090B9704700BFDA
:10D13000E05400202319002047F62303984210B53D
:10D14000044627D010D8A0F5A443203B0F2B16D9B6
:10D150001D4B1B78002B34D0A4F5F044203C0A2C46
:10D1600094BF0020012010BD47F624039842EFD160
:10D17000164A4979137809B343F0040310E0134ABF
:10D180004979137819B143F001031370E0E723F0F4
:10D190000103FAE70D4A4979137849B143F00203D4
:10D1A000072B1370D4D106F0A1FC094B1860CFE710
:10D1B00023F002031370064B1960C9E723F0040340
:10D1C000F8E70120CFE700BFA1190020A019002037
:10D1D0009C1900202DE9F0411C248CB000252C4422
:10D1E0001D2200210DF112000BF034F96B2CC6BF8B
:10D1F000C5F16B04E4B21C248DF81050254404A83A
:10D20000EDB28DF81140FFF7F5F86A2DE7D918490E
:10D21000184F052202A80BF06CF9002402AD264637
:10D220004FF0010815F8013B8DF811408DF81330CF
:10D2300004A8272301348DF810608DF8128005971B
:10D24000ADF818308DF81A60FFF7FCF8052CE9D11D
:10D2500004F086FAFF221146C0B204F07DFA7F2066
:10D2600004F090FB182004F02FFA0CB0BDE8F08118
:10D27000B991010800FF7F1070B51A4E1A4C306842
:10D2800060B306F0E0FB41F28833984226D9174B91
:10D29000257819780022072932601FD195421A702B
:10D2A0000CBF01231346237005D1FCF7D5FE0128DE
:10D2B00006D0257070BD0E480822172102F04EFAE4
:10D2C000FFF790F823783BB104F002FA1828F1D068
:10D2D000BDE87040FFF77EBFFFF73AF82378002BD8
:10D2E000E8D0F1E79C190020A1190020A019002026
:10D2F000E0540020F8B50C46054615220021601DBB
:10D300000BF0A8F8FF2323706370AB23A370CD2329
:10D31000E37022232371AE7806F00F06A671EB7836
:10D3200003F0070343F01803E3716B796372AB7981
:10D33000E3756B781BB12B78642B28BF6423637172
:10D340002F690422002104F10F000BF083F8FFB1D4
:10D350003B78EBB17B1E04F10E01033713F8012F6C
:10D360001AB19F4201F8012FF8D16B7AE374AB7ABE
:10D370002375EB7A63752B7BA375EB7923762B7A78
:10D3800063762B79052B28BF052323721A20F8BD5D
:10D39000092E4FF04C03E37385BF26363123303618
:10D3A00023748CBF66742674DFE708B5FCF754FE5F
:10D3B000022804D1FBF7AEFA00F0070008BD0020F8
:10D3C000FCE7000030B58DB01422002168460BF058
:10D3D00041F8494B1878494B1B781843C0B200F00C
:10D3E00003FB00F00F008DF8020001F081FA8DF8C8
:10D3F0000600FCF731FE0546FCF70AFF8400E4B2A4
:10D4000044F00803012D08BF1C46FCF701FF38B1AA
:10D410003B4B1A6944F0020312F4005F08BF1C463C
:10D4200015F0060F09D0FBF76FFA032805D1022D7E
:10D4300014BF44F0100444F0300404F095FE20437F
:10D440008DF80500FCF708FE10F0060004D0FBF78D
:10D450005BFAC31E5842584100248DF804008DF831
:10D460000840FFF7A2FF8DF80300FDF753F864288A
:10D470008DF800008CBF002001208DF8010005F020
:10D48000DDFF204B8DF80700D3F8103A8DF80930F6
:10D490001A0A8DF80A2005A91A0C68461B0E8DF889
:10D4A0000B208DF80C300494FFF724FF164A174820
:10D4B0001368013305A913601A220BF01AF8144BF4
:10D4C00001221A7006F07EF800F00102C0F340035A
:10D4D00043EA420310F0040F43F004024FF01A0134
:10D4E00008BF1A46094800F0A3F806F0FFFA094BF6
:10D4F00018600DB030BD00BF121A0020131A0020B2
:10D50000000402400070FF1FCC190020AD1900205C
:10D51000AC190020A819002008B5074B00221A609A
:10D52000064B05221A7006F0E1FA054B1860BDE8BB
:10D53000084000F07BB800BFA8190020A219002005
:10D54000A41900202DE9F04706F0D0FA2E4BDFF8A1
:10D55000D4802E4DDFF8D0902D4F044618782D4BF7
:10D560001B781843C0B200F03FFA98F8003000F082
:10D570000F06B3421AD095F800A088F8006001F0B9
:10D58000B7F989F80000FFF710FF3870BAF1000F03
:10D5900020D005232B70204B1C60FFF713FF2B7846
:10D5A000013B2B701C4B0F341C6011E001F0A0F903
:10D5B00099F800308342DED1FFF7F7FE3B788342D3
:10D5C000D9D12B785BB1144B1B68E31A002BE4DA3A
:10D5D000BDE8F087114A136801331360D9E701F001
:10D5E00059FB47F2305441F28733984298BF4FF4C9
:10D5F0007A740B4B186806F026FAA042E8D3BDE80F
:10D60000F047FFF7DFBE00BF121A0020A21900206A
:10D61000D70C0020131A0020A4190020C8190020DC
:10D62000A8190020D90C0020D80C00207047000059
:10D6300070B51A2988B006460C46154605D0154A1D
:10D6400013680133136008B070BD202200216846C2
:10D650000AF000FF4FF4D773224631460DF1030064
:10D66000ADF800308DF802400AF043FF8DF81D50F0
:10D67000FCF7CEFD60B9FCF7EFFC10F0060F14BF0D
:10D680000120002020226946FDF7E6FB024AD7E789
:10D690000020F7E7D0190020D419002038B504463F
:10D6A0000D4628B981420CBF0420012000F095FDF1
:10D6B00029462046FDF77EFE012038BD08B5FDF75E
:10D6C00005FB01F006FB06F011FA034B1860BDE8FC
:10D6D0000840FFF721BF00BFD819002038B52B4DF7
:10D6E000286868B306F0AFF940F6B8339842284C82
:10D6F0002AD900232B6005F065FF83075CBF4FF438
:10D700000073638320236383FCF7A6FC04280FD0F7
:10D7100020490022012451F8043B013223F00F007C
:10D72000D2B203F00F0304FA03F3032A0383F2D106
:10D73000FCF792FC042803D1174B4FF480421A8364
:10D74000BDE83840FFF7FEBE4FF40073238320236B
:10D750002383FCF781FC04280FD00E49002201240A
:10D7600051F8043B013223F00F00D2B203F00F0353
:10D7700004FA03F3032A0383F2D1FCF76DFC0428B7
:10D7800002BF054B4FF480425A83D9E7D8190020D5
:10D7900000080240DC0C00200004024008B5054BE4
:10D7A0001B682BB9FDF7AAFE80F00100C0B208BDCE
:10D7B0000020FCE7D819002003280DD805290BD834
:10D7C000132A09D878235843142303FB010010447B
:10D7D000024B33F810007047012070476295010832
:10D7E000012070470120704708B5FFF7FBFF08BD17
:10D7F00001207047012070477047704708B5FFF758
:10D80000FCFF08BD012070477047704713B5104BEF
:10D810001B78CDE90001B3B99DF8053073B16AB149
:10D8200000F0A8FD04460146009800F073FD009941
:10D83000204602B0BDE8104001F058BC009800F04E
:10D8400081FD0446F3E7009800F094FD0099F0E7AD
:10D85000E419002010B4034600885C880A4640EAB8
:10D860000440998810BCFFF7D1BF10B501210446D0
:10D87000FFF7F0FF2146FFF7B3FF30B1012120464B
:10D88000FFF7E8FF2146FFF7AFFF10BD38B50021D5
:10D890000446FFF7DFFF21460546FFF7ADFF2146AF
:10D8A0002846FFF7ABFF38BD38B501210446FFF726
:10D8B000D1FF637905460BB105F0E0FD214628460E
:10D8C000FFF796FFE0B321462846FDF7E7F9B8B326
:10D8D0002146284605F007FC90B32146284604F06F
:10D8E000C3FB68B32146284605F01CFB40B3214624
:10D8F000284604F027FE18B32146284604F0FCFD14
